{
    "contractName": "SongRegistry",
    "abi": [
        {
            "inputs": [
                {
                    "internalType": "uint256",
                    "name": "songId",
                    "type": "uint256"
                }
            ],
            "name": "buy",
            "outputs": [],
            "stateMutability": "payable",
            "type": "function"
        },
        {
            "inputs": [
                {
                    "internalType": "uint256",
                    "name": "songId",
                    "type": "uint256"
                }
            ],
            "name": "isBuyer",
            "outputs": [
                {
                    "internalType": "bool",
                    "name": "",
                    "type": "bool"
                }
            ],
            "stateMutability": "view",
            "type": "function"
        },
        {
            "inputs": [],
            "name": "numberOfSongs",
            "outputs": [
                {
                    "internalType": "uint256",
                    "name": "",
                    "type": "uint256"
                }
            ],
            "stateMutability": "view",
            "type": "function"
        },
        {
            "inputs": [
                {
                    "internalType": "string",
                    "name": "_title",
                    "type": "string"
                },
                {
                    "internalType": "string",
                    "name": "_url",
                    "type": "string"
                },
                {
                    "internalType": "uint256",
                    "name": "_price",
                    "type": "uint256"
                }
            ],
            "name": "register",
            "outputs": [
                {
                    "internalType": "uint256",
                    "name": "",
                    "type": "uint256"
                }
            ],
            "stateMutability": "nonpayable",
            "type": "function"
        },
        {
            "inputs": [
                {
                    "internalType": "uint256",
                    "name": "",
                    "type": "uint256"
                }
            ],
            "name": "songs",
            "outputs": [
                {
                    "internalType": "address",
                    "name": "owner",
                    "type": "address"
                },
                {
                    "internalType": "string",
                    "name": "url",
                    "type": "string"
                },
                {
                    "internalType": "string",
                    "name": "title",
                    "type": "string"
                },
                {
                    "internalType": "uint256",
                    "name": "price",
                    "type": "uint256"
                }
            ],
            "stateMutability": "view",
            "type": "function"
        }
    ],
    "bytecode": "608060405234801561001057600080fd5b50610805806100206000396000f3fe60806040526004361061004a5760003560e01c8063304cff301461004f5780634d8a0b0114610177578063d96a094a1461019e578063e8a60558146101bd578063fecf415a146102f9575b600080fd5b34801561005b57600080fd5b506100796004803603602081101561007257600080fd5b5035610337565b60405180856001600160a01b03166001600160a01b031681526020018060200180602001848152602001838103835286818151815260200191508051906020019080838360005b838110156100d85781810151838201526020016100c0565b50505050905090810190601f1680156101055780820380516001836020036101000a031916815260200191505b50838103825285518152855160209182019187019080838360005b83811015610138578181015183820152602001610120565b50505050905090810190601f1680156101655780820380516001836020036101000a031916815260200191505b50965050505050505060405180910390f35b34801561018357600080fd5b5061018c610493565b60408051918252519081900360200190f35b6101bb600480360360208110156101b457600080fd5b503561049a565b005b3480156101c957600080fd5b5061018c600480360360608110156101e057600080fd5b8101906020810181356401000000008111156101fb57600080fd5b82018360208201111561020d57600080fd5b8035906020019184600183028401116401000000008311171561022f57600080fd5b91908080601f016020809104026020016040519081016040528093929190818152602001838380828437600092019190915250929594936020810193503591505064010000000081111561028257600080fd5b82018360208201111561029457600080fd5b803590602001918460018302840111640100000000831117156102b657600080fd5b91908080601f016020809104026020016040519081016040528093929190818152602001838380828437600092019190915250929550509135925061057a915050565b34801561030557600080fd5b506103236004803603602081101561031c57600080fd5b503561069d565b604080519115158252519081900360200190f35b6000818154811061034457fe5b600091825260209182902060049091020180546001808301805460408051601f60026000199685161561010002969096019093169490940491820187900487028401870190528083526001600160a01b0390931695509293909291908301828280156103f15780601f106103c6576101008083540402835291602001916103f1565b820191906000526020600020905b8154815290600101906020018083116103d457829003601f168201915b50505060028085018054604080516020601f60001961010060018716150201909416959095049283018590048502810185019091528181529596959450909250908301828280156104835780601f1061045857610100808354040283529160200191610483565b820191906000526020600020905b81548152906001019060200180831161046657829003601f168201915b5050505050908060030154905084565b6000545b90565b60008082815481106104a857fe5b6000918252602080832085845260018083526040852080549182018155855291909320018054336001600160a01b0319909116179055600402016003810154909150341461053d576040805162461bcd60e51b815260206004820152601c60248201527f56616c756520646f6573206e6f74206d617463682070726963652e2000000000604482015290519081900360640190fd5b80546040516001600160a01b03909116903480156108fc02916000818181858888f19350505050158015610575573d6000803e3d6000fd5b505050565b6000610584610706565b50604080516080810182523381526020808201878152928201869052606082018590526000805460018101825590805282517f290decd9548b62a8d60345a988386fc84ba6bc95484008f6362f93160ef3e563600490920291820180546001600160a01b0319166001600160a01b0390921691909117815593518051939485949093610634937f290decd9548b62a8d60345a988386fc84ba6bc95484008f6362f93160ef3e56401920190610737565b5060408201518051610650916002840191602090910190610737565b50606091909101516003909101555050600080546000199081018252600160208181526040842080549283018155845283200180546001600160a01b031916331790559054019392505050565b600081815260016020526040812081805b82548110156106fe57336001600160a01b03168382815481106106cd57fe5b6000918252602090912001546001600160a01b031614156106f157600191506106f6565b600091505b6001016106ae565b509392505050565b604051806080016040528060006001600160a01b031681526020016060815260200160608152602001600081525090565b828054600181600116156101000203166002900490600052602060002090601f016020900481019282601f1061077857805160ff19168380011785556107a5565b828001600101855582156107a5579182015b828111156107a557825182559160200191906001019061078a565b506107b19291506107b5565b5090565b61049791905b808211156107b157600081556001016107bb56fea264697066735822122059cd15870cd2f1439445348d7e50919548094d35072fa0c3867923d49af86cf064736f6c63430006010033",
    "sourcePath": "/home/mikea/BlockchainDev/FTC_Tuts/SongRegistry/contracts/SongRegistry.sol",
    "compiler": {
        "name": "solc",
        "version": "0.6.1+commit.e6f7d5a4"
    },
    "functionHashes": {
        "buy(uint256)": "d96a094a",
        "isBuyer(uint256)": "fecf415a",
        "numberOfSongs()": "4d8a0b01",
        "register(string,string,uint256)": "e8a60558",
        "songs(uint256)": "304cff30"
    },
    "gasEstimates": {
        "creation": {
            "codeDepositCost": "410600",
            "executionCost": "449",
            "totalCost": "411049"
        },
        "external": {
            "buy(uint256)": "infinite",
            "isBuyer(uint256)": "infinite",
            "numberOfSongs()": "999",
            "register(string,string,uint256)": "infinite",
            "songs(uint256)": "infinite"
        }
    }
}